{
  "_format": "hh-sol-artifact-1",
  "contractName": "Gold",
  "sourceName": "contracts/gold/Gold.sol",
  "abi": [
    {
      "inputs": [],
      "stateMutability": "nonpayable",
      "type": "constructor"
    },
    {
      "anonymous": false,
      "inputs": [
        {
          "indexed": true,
          "internalType": "address",
          "name": "owner",
          "type": "address"
        },
        {
          "indexed": true,
          "internalType": "address",
          "name": "spender",
          "type": "address"
        },
        {
          "indexed": false,
          "internalType": "uint256",
          "name": "value",
          "type": "uint256"
        }
      ],
      "name": "Approval",
      "type": "event"
    },
    {
      "anonymous": false,
      "inputs": [
        {
          "indexed": false,
          "internalType": "address",
          "name": "account",
          "type": "address"
        }
      ],
      "name": "BlackListAdd",
      "type": "event"
    },
    {
      "anonymous": false,
      "inputs": [
        {
          "indexed": false,
          "internalType": "address",
          "name": "account",
          "type": "address"
        }
      ],
      "name": "BlackListRemove",
      "type": "event"
    },
    {
      "anonymous": false,
      "inputs": [
        {
          "indexed": false,
          "internalType": "address",
          "name": "account",
          "type": "address"
        }
      ],
      "name": "Paused",
      "type": "event"
    },
    {
      "anonymous": false,
      "inputs": [
        {
          "indexed": true,
          "internalType": "bytes32",
          "name": "role",
          "type": "bytes32"
        },
        {
          "indexed": true,
          "internalType": "bytes32",
          "name": "previousAdminRole",
          "type": "bytes32"
        },
        {
          "indexed": true,
          "internalType": "bytes32",
          "name": "newAdminRole",
          "type": "bytes32"
        }
      ],
      "name": "RoleAdminChanged",
      "type": "event"
    },
    {
      "anonymous": false,
      "inputs": [
        {
          "indexed": true,
          "internalType": "bytes32",
          "name": "role",
          "type": "bytes32"
        },
        {
          "indexed": true,
          "internalType": "address",
          "name": "account",
          "type": "address"
        },
        {
          "indexed": true,
          "internalType": "address",
          "name": "sender",
          "type": "address"
        }
      ],
      "name": "RoleGranted",
      "type": "event"
    },
    {
      "anonymous": false,
      "inputs": [
        {
          "indexed": true,
          "internalType": "bytes32",
          "name": "role",
          "type": "bytes32"
        },
        {
          "indexed": true,
          "internalType": "address",
          "name": "account",
          "type": "address"
        },
        {
          "indexed": true,
          "internalType": "address",
          "name": "sender",
          "type": "address"
        }
      ],
      "name": "RoleRevoked",
      "type": "event"
    },
    {
      "anonymous": false,
      "inputs": [
        {
          "indexed": true,
          "internalType": "address",
          "name": "from",
          "type": "address"
        },
        {
          "indexed": true,
          "internalType": "address",
          "name": "to",
          "type": "address"
        },
        {
          "indexed": false,
          "internalType": "uint256",
          "name": "value",
          "type": "uint256"
        }
      ],
      "name": "Transfer",
      "type": "event"
    },
    {
      "anonymous": false,
      "inputs": [
        {
          "indexed": false,
          "internalType": "address",
          "name": "account",
          "type": "address"
        }
      ],
      "name": "Unpaused",
      "type": "event"
    },
    {
      "inputs": [],
      "name": "DEFAULT_ADMIN_ROLE",
      "outputs": [
        {
          "internalType": "bytes32",
          "name": "",
          "type": "bytes32"
        }
      ],
      "stateMutability": "view",
      "type": "function"
    },
    {
      "inputs": [],
      "name": "PAUSE_ROLE",
      "outputs": [
        {
          "internalType": "bytes32",
          "name": "",
          "type": "bytes32"
        }
      ],
      "stateMutability": "view",
      "type": "function"
    },
    {
      "inputs": [
        {
          "internalType": "address",
          "name": "_account",
          "type": "address"
        }
      ],
      "name": "_addToBlackList",
      "outputs": [],
      "stateMutability": "nonpayable",
      "type": "function"
    },
    {
      "inputs": [
        {
          "internalType": "address",
          "name": "_account",
          "type": "address"
        }
      ],
      "name": "_removeFromBlackList",
      "outputs": [],
      "stateMutability": "nonpayable",
      "type": "function"
    },
    {
      "inputs": [
        {
          "internalType": "address",
          "name": "owner",
          "type": "address"
        },
        {
          "internalType": "address",
          "name": "spender",
          "type": "address"
        }
      ],
      "name": "allowance",
      "outputs": [
        {
          "internalType": "uint256",
          "name": "",
          "type": "uint256"
        }
      ],
      "stateMutability": "view",
      "type": "function"
    },
    {
      "inputs": [
        {
          "internalType": "address",
          "name": "spender",
          "type": "address"
        },
        {
          "internalType": "uint256",
          "name": "amount",
          "type": "uint256"
        }
      ],
      "name": "approve",
      "outputs": [
        {
          "internalType": "bool",
          "name": "",
          "type": "bool"
        }
      ],
      "stateMutability": "nonpayable",
      "type": "function"
    },
    {
      "inputs": [
        {
          "internalType": "address",
          "name": "account",
          "type": "address"
        }
      ],
      "name": "balanceOf",
      "outputs": [
        {
          "internalType": "uint256",
          "name": "",
          "type": "uint256"
        }
      ],
      "stateMutability": "view",
      "type": "function"
    },
    {
      "inputs": [],
      "name": "decimals",
      "outputs": [
        {
          "internalType": "uint8",
          "name": "",
          "type": "uint8"
        }
      ],
      "stateMutability": "view",
      "type": "function"
    },
    {
      "inputs": [
        {
          "internalType": "address",
          "name": "spender",
          "type": "address"
        },
        {
          "internalType": "uint256",
          "name": "subtractedValue",
          "type": "uint256"
        }
      ],
      "name": "decreaseAllowance",
      "outputs": [
        {
          "internalType": "bool",
          "name": "",
          "type": "bool"
        }
      ],
      "stateMutability": "nonpayable",
      "type": "function"
    },
    {
      "inputs": [
        {
          "internalType": "bytes32",
          "name": "role",
          "type": "bytes32"
        }
      ],
      "name": "getRoleAdmin",
      "outputs": [
        {
          "internalType": "bytes32",
          "name": "",
          "type": "bytes32"
        }
      ],
      "stateMutability": "view",
      "type": "function"
    },
    {
      "inputs": [
        {
          "internalType": "bytes32",
          "name": "role",
          "type": "bytes32"
        },
        {
          "internalType": "address",
          "name": "account",
          "type": "address"
        }
      ],
      "name": "grantRole",
      "outputs": [],
      "stateMutability": "nonpayable",
      "type": "function"
    },
    {
      "inputs": [
        {
          "internalType": "bytes32",
          "name": "role",
          "type": "bytes32"
        },
        {
          "internalType": "address",
          "name": "account",
          "type": "address"
        }
      ],
      "name": "hasRole",
      "outputs": [
        {
          "internalType": "bool",
          "name": "",
          "type": "bool"
        }
      ],
      "stateMutability": "view",
      "type": "function"
    },
    {
      "inputs": [
        {
          "internalType": "address",
          "name": "spender",
          "type": "address"
        },
        {
          "internalType": "uint256",
          "name": "addedValue",
          "type": "uint256"
        }
      ],
      "name": "increaseAllowance",
      "outputs": [
        {
          "internalType": "bool",
          "name": "",
          "type": "bool"
        }
      ],
      "stateMutability": "nonpayable",
      "type": "function"
    },
    {
      "inputs": [],
      "name": "name",
      "outputs": [
        {
          "internalType": "string",
          "name": "",
          "type": "string"
        }
      ],
      "stateMutability": "view",
      "type": "function"
    },
    {
      "inputs": [],
      "name": "pause",
      "outputs": [],
      "stateMutability": "nonpayable",
      "type": "function"
    },
    {
      "inputs": [],
      "name": "paused",
      "outputs": [
        {
          "internalType": "bool",
          "name": "",
          "type": "bool"
        }
      ],
      "stateMutability": "view",
      "type": "function"
    },
    {
      "inputs": [
        {
          "internalType": "bytes32",
          "name": "role",
          "type": "bytes32"
        },
        {
          "internalType": "address",
          "name": "account",
          "type": "address"
        }
      ],
      "name": "renounceRole",
      "outputs": [],
      "stateMutability": "nonpayable",
      "type": "function"
    },
    {
      "inputs": [
        {
          "internalType": "bytes32",
          "name": "role",
          "type": "bytes32"
        },
        {
          "internalType": "address",
          "name": "account",
          "type": "address"
        }
      ],
      "name": "revokeRole",
      "outputs": [],
      "stateMutability": "nonpayable",
      "type": "function"
    },
    {
      "inputs": [
        {
          "internalType": "bytes4",
          "name": "interfaceId",
          "type": "bytes4"
        }
      ],
      "name": "supportsInterface",
      "outputs": [
        {
          "internalType": "bool",
          "name": "",
          "type": "bool"
        }
      ],
      "stateMutability": "view",
      "type": "function"
    },
    {
      "inputs": [],
      "name": "symbol",
      "outputs": [
        {
          "internalType": "string",
          "name": "",
          "type": "string"
        }
      ],
      "stateMutability": "view",
      "type": "function"
    },
    {
      "inputs": [],
      "name": "totalSupply",
      "outputs": [
        {
          "internalType": "uint256",
          "name": "",
          "type": "uint256"
        }
      ],
      "stateMutability": "view",
      "type": "function"
    },
    {
      "inputs": [
        {
          "internalType": "address",
          "name": "to",
          "type": "address"
        },
        {
          "internalType": "uint256",
          "name": "amount",
          "type": "uint256"
        }
      ],
      "name": "transfer",
      "outputs": [
        {
          "internalType": "bool",
          "name": "",
          "type": "bool"
        }
      ],
      "stateMutability": "nonpayable",
      "type": "function"
    },
    {
      "inputs": [
        {
          "internalType": "address",
          "name": "from",
          "type": "address"
        },
        {
          "internalType": "address",
          "name": "to",
          "type": "address"
        },
        {
          "internalType": "uint256",
          "name": "amount",
          "type": "uint256"
        }
      ],
      "name": "transferFrom",
      "outputs": [
        {
          "internalType": "bool",
          "name": "",
          "type": "bool"
        }
      ],
      "stateMutability": "nonpayable",
      "type": "function"
    },
    {
      "inputs": [],
      "name": "unpause",
      "outputs": [],
      "stateMutability": "nonpayable",
      "type": "function"
    }
  ],
  "bytecode": "0x60806040523480156200001157600080fd5b506040518060400160405280600481526020017f474f4c44000000000000000000000000000000000000000000000000000000008152506040518060400160405280600381526020017f474c440000000000000000000000000000000000000000000000000000000000815250816003908051906020019062000096929190620005e3565b508060049080519060200190620000af929190620005e3565b5050506000600660006101000a81548160ff021916908315150217905550620000e26000801b336200012760201b60201c565b6200012133620000f76200013d60201b60201c565b600a620001059190620008ae565b620f4240620001159190620009eb565b6200014660201b60201c565b62000bf4565b620001398282620002bf60201b60201c565b5050565b60006012905090565b600073ffffffffffffffffffffffffffffffffffffffff168273ffffffffffffffffffffffffffffffffffffffff161415620001b9576040517f08c379a0000000000000000000000000000000000000000000000000000000008152600401620001b090620007a6565b60405180910390fd5b620001cd60008383620003b160201b60201c565b8060026000828254620001e19190620007f6565b92505081905550806000808473ffffffffffffffffffffffffffffffffffffffff1673ffffffffffffffffffffffffffffffffffffffff1681526020019081526020016000206000828254620002389190620007f6565b925050819055508173ffffffffffffffffffffffffffffffffffffffff16600073ffffffffffffffffffffffffffffffffffffffff167fddf252ad1be2c89b69c2b068fc378daa952ba7f163c4a11628f55a4df523b3ef836040516200029f9190620007c8565b60405180910390a3620002bb600083836200054f60201b60201c565b5050565b620002d182826200055460201b60201c565b620003ad5760016005600084815260200190815260200160002060000160008373ffffffffffffffffffffffffffffffffffffffff1673ffffffffffffffffffffffffffffffffffffffff16815260200190815260200160002060006101000a81548160ff02191690831515021790555062000352620005bf60201b60201c565b73ffffffffffffffffffffffffffffffffffffffff168173ffffffffffffffffffffffffffffffffffffffff16837f2f8788117e7eff1d82e926ec794901d17c78024a50270940304540a733656f0d60405160405180910390a45b5050565b620003c1620005c760201b60201c565b1562000404576040517f08c379a0000000000000000000000000000000000000000000000000000000008152600401620003fb9062000762565b60405180910390fd5b60011515600760008573ffffffffffffffffffffffffffffffffffffffff1673ffffffffffffffffffffffffffffffffffffffff16815260200190815260200160002060009054906101000a900460ff16151514156200049b576040517f08c379a0000000000000000000000000000000000000000000000000000000008152600401620004929062000784565b60405180910390fd5b60011515600760008473ffffffffffffffffffffffffffffffffffffffff1673ffffffffffffffffffffffffffffffffffffffff16815260200190815260200160002060009054906101000a900460ff161515141562000532576040517f08c379a0000000000000000000000000000000000000000000000000000000008152600401620005299062000740565b60405180910390fd5b6200054a838383620005de60201b62000ea81760201c565b505050565b505050565b60006005600084815260200190815260200160002060000160008373ffffffffffffffffffffffffffffffffffffffff1673ffffffffffffffffffffffffffffffffffffffff16815260200190815260200160002060009054906101000a900460ff16905092915050565b600033905090565b6000600660009054906101000a900460ff16905090565b505050565b828054620005f19062000a63565b90600052602060002090601f01602090048101928262000615576000855562000661565b82601f106200063057805160ff191683800117855562000661565b8280016001018555821562000661579182015b828111156200066057825182559160200191906001019062000643565b5b50905062000670919062000674565b5090565b5b808211156200068f57600081600090555060010162000675565b5090565b6000620006a2602483620007e5565b9150620006af8262000b04565b604082019050919050565b6000620006c9601083620007e5565b9150620006d68262000b53565b602082019050919050565b6000620006f0602183620007e5565b9150620006fd8262000b7c565b604082019050919050565b600062000717601f83620007e5565b9150620007248262000bcb565b602082019050919050565b6200073a8162000a4c565b82525050565b600060208201905081810360008301526200075b8162000693565b9050919050565b600060208201905081810360008301526200077d81620006ba565b9050919050565b600060208201905081810360008301526200079f81620006e1565b9050919050565b60006020820190508181036000830152620007c18162000708565b9050919050565b6000602082019050620007df60008301846200072f565b92915050565b600082825260208201905092915050565b6000620008038262000a4c565b9150620008108362000a4c565b9250827fffffffffffffffffffffffffffffffffffffffffffffffffffffffffffffffff0382111562000848576200084762000a99565b5b828201905092915050565b6000808291508390505b6001851115620008a5578086048111156200087d576200087c62000a99565b5b60018516156200088d5780820291505b80810290506200089d8562000af7565b94506200085d565b94509492505050565b6000620008bb8262000a4c565b9150620008c88362000a56565b9250620008f77fffffffffffffffffffffffffffffffffffffffffffffffffffffffffffffffff8484620008ff565b905092915050565b600082620009115760019050620009e4565b81620009215760009050620009e4565b81600181146200093a576002811462000945576200097b565b6001915050620009e4565b60ff8411156200095a576200095962000a99565b5b8360020a91508482111562000974576200097362000a99565b5b50620009e4565b5060208310610133831016604e8410600b8410161715620009b55782820a905083811115620009af57620009ae62000a99565b5b620009e4565b620009c4848484600162000853565b92509050818404811115620009de57620009dd62000a99565b5b81810290505b9392505050565b6000620009f88262000a4c565b915062000a058362000a4c565b9250817fffffffffffffffffffffffffffffffffffffffffffffffffffffffffffffffff048311821515161562000a415762000a4062000a99565b5b828202905092915050565b6000819050919050565b600060ff82169050919050565b6000600282049050600182168062000a7c57607f821691505b6020821081141562000a935762000a9262000ac8565b5b50919050565b7f4e487b7100000000000000000000000000000000000000000000000000000000600052601160045260246000fd5b7f4e487b7100000000000000000000000000000000000000000000000000000000600052602260045260246000fd5b60008160011c9050919050565b7f476f6c643a204163636f756e7420726563697069656e7420696e20426c61636b60008201527f6c69737400000000000000000000000000000000000000000000000000000000602082015250565b7f5061757361626c653a2070617573656400000000000000000000000000000000600082015250565b7f476f6c643a204163636f756e742073656e64657220696e20426c61636b6c697360008201527f7400000000000000000000000000000000000000000000000000000000000000602082015250565b7f45524332303a206d696e7420746f20746865207a65726f206164647265737300600082015250565b612b4b8062000c046000396000f3fe608060405234801561001057600080fd5b50600436106101585760003560e01c80635c975abb116100c3578063a457c2d71161007c578063a457c2d7146103cb578063a9059cbb146103fb578063d547741f1461042b578063d8930aca14610447578063dd62ed3e14610463578063e86d93891461049357610158565b80635c975abb1461030757806370a08231146103255780638456cb591461035557806391d148541461035f57806395d89b411461038f578063a217fddf146103ad57610158565b80632f2ff15d116101155780632f2ff15d14610259578063313ce5671461027557806336568abe14610293578063389ed267146102af57806339509351146102cd5780633f4ba83a146102fd57610158565b806301ffc9a71461015d57806306fdde031461018d578063095ea7b3146101ab57806318160ddd146101db57806323b872dd146101f9578063248a9ca314610229575b600080fd5b61017760048036038101906101729190611dc4565b6104af565b604051610184919061216d565b60405180910390f35b610195610529565b6040516101a291906121a3565b60405180910390f35b6101c560048036038101906101c09190611d23565b6105bb565b6040516101d2919061216d565b60405180910390f35b6101e36105de565b6040516101f091906123c5565b60405180910390f35b610213600480360381019061020e9190611cd4565b6105e8565b604051610220919061216d565b60405180910390f35b610243600480360381019061023e9190611d5f565b610617565b6040516102509190612188565b60405180910390f35b610273600480360381019061026e9190611d88565b610637565b005b61027d610660565b60405161028a91906123e0565b60405180910390f35b6102ad60048036038101906102a89190611d88565b610669565b005b6102b76106ec565b6040516102c49190612188565b60405180910390f35b6102e760048036038101906102e29190611d23565b610710565b6040516102f4919061216d565b60405180910390f35b6103056107ba565b005b61030f6107f7565b60405161031c919061216d565b60405180910390f35b61033f600480360381019061033a9190611c6f565b61080e565b60405161034c91906123c5565b60405180910390f35b61035d610856565b005b61037960048036038101906103749190611d88565b610893565b604051610386919061216d565b60405180910390f35b6103976108fe565b6040516103a491906121a3565b60405180910390f35b6103b5610990565b6040516103c29190612188565b60405180910390f35b6103e560048036038101906103e09190611d23565b610997565b6040516103f2919061216d565b60405180910390f35b61041560048036038101906104109190611d23565b610a81565b604051610422919061216d565b60405180910390f35b61044560048036038101906104409190611d88565b610aa4565b005b610461600480360381019061045c9190611c6f565b610acd565b005b61047d60048036038101906104789190611c98565b610c77565b60405161048a91906123c5565b60405180910390f35b6104ad60048036038101906104a89190611c6f565b610cfe565b005b60007f7965db0b000000000000000000000000000000000000000000000000000000007bffffffffffffffffffffffffffffffffffffffffffffffffffffffff1916827bffffffffffffffffffffffffffffffffffffffffffffffffffffffff19161480610522575061052182610ead565b5b9050919050565b606060038054610538906125ba565b80601f0160208091040260200160405190810160405280929190818152602001828054610564906125ba565b80156105b15780601f10610586576101008083540402835291602001916105b1565b820191906000526020600020905b81548152906001019060200180831161059457829003601f168201915b5050505050905090565b6000806105c6610f17565b90506105d3818585610f1f565b600191505092915050565b6000600254905090565b6000806105f3610f17565b90506106008582856110ea565b61060b858585611176565b60019150509392505050565b600060056000838152602001908152602001600020600101549050919050565b61064082610617565b6106518161064c610f17565b6113f7565b61065b8383611494565b505050565b60006012905090565b610671610f17565b73ffffffffffffffffffffffffffffffffffffffff168173ffffffffffffffffffffffffffffffffffffffff16146106de576040517f08c379a00000000000000000000000000000000000000000000000000000000081526004016106d5906123a5565b60405180910390fd5b6106e88282611575565b5050565b7f139c2898040ef16910dc9f44dc697df79363da767d8bc92f2e310312b816e46d81565b60008061071b610f17565b90506107af818585600160008673ffffffffffffffffffffffffffffffffffffffff1673ffffffffffffffffffffffffffffffffffffffff16815260200190815260200160002060008973ffffffffffffffffffffffffffffffffffffffff1673ffffffffffffffffffffffffffffffffffffffff168152602001908152602001600020546107aa9190612422565b610f1f565b600191505092915050565b7f139c2898040ef16910dc9f44dc697df79363da767d8bc92f2e310312b816e46d6107ec816107e7610f17565b6113f7565b6107f4611657565b50565b6000600660009054906101000a900460ff16905090565b60008060008373ffffffffffffffffffffffffffffffffffffffff1673ffffffffffffffffffffffffffffffffffffffff168152602001908152602001600020549050919050565b7f139c2898040ef16910dc9f44dc697df79363da767d8bc92f2e310312b816e46d61088881610883610f17565b6113f7565b6108906116f9565b50565b60006005600084815260200190815260200160002060000160008373ffffffffffffffffffffffffffffffffffffffff1673ffffffffffffffffffffffffffffffffffffffff16815260200190815260200160002060009054906101000a900460ff16905092915050565b60606004805461090d906125ba565b80601f0160208091040260200160405190810160405280929190818152602001828054610939906125ba565b80156109865780601f1061095b57610100808354040283529160200191610986565b820191906000526020600020905b81548152906001019060200180831161096957829003601f168201915b5050505050905090565b6000801b81565b6000806109a2610f17565b90506000600160008373ffffffffffffffffffffffffffffffffffffffff1673ffffffffffffffffffffffffffffffffffffffff16815260200190815260200160002060008673ffffffffffffffffffffffffffffffffffffffff1673ffffffffffffffffffffffffffffffffffffffff16815260200190815260200160002054905083811015610a68576040517f08c379a0000000000000000000000000000000000000000000000000000000008152600401610a5f90612385565b60405180910390fd5b610a758286868403610f1f565b60019250505092915050565b600080610a8c610f17565b9050610a99818585611176565b600191505092915050565b610aad82610617565b610abe81610ab9610f17565b6113f7565b610ac88383611575565b505050565b6000801b610ae281610add610f17565b6113f7565b3373ffffffffffffffffffffffffffffffffffffffff168273ffffffffffffffffffffffffffffffffffffffff161415610b51576040517f08c379a0000000000000000000000000000000000000000000000000000000008152600401610b48906122c5565b60405180910390fd5b60001515600760008473ffffffffffffffffffffffffffffffffffffffff1673ffffffffffffffffffffffffffffffffffffffff16815260200190815260200160002060009054906101000a900460ff16151514610be4576040517f08c379a0000000000000000000000000000000000000000000000000000000008152600401610bdb90612325565b60405180910390fd5b6001600760008473ffffffffffffffffffffffffffffffffffffffff1673ffffffffffffffffffffffffffffffffffffffff16815260200190815260200160002060006101000a81548160ff0219169083151502179055507f8abe76bc2c0c3b7775137ee480dde260d5380f18924ae78f9bf7bb1921affaa882604051610c6b9190612152565b60405180910390a15050565b6000600160008473ffffffffffffffffffffffffffffffffffffffff1673ffffffffffffffffffffffffffffffffffffffff16815260200190815260200160002060008373ffffffffffffffffffffffffffffffffffffffff1673ffffffffffffffffffffffffffffffffffffffff16815260200190815260200160002054905092915050565b6000801b610d1381610d0e610f17565b6113f7565b3373ffffffffffffffffffffffffffffffffffffffff168273ffffffffffffffffffffffffffffffffffffffff161415610d82576040517f08c379a0000000000000000000000000000000000000000000000000000000008152600401610d79906122c5565b60405180910390fd5b60011515600760008473ffffffffffffffffffffffffffffffffffffffff1673ffffffffffffffffffffffffffffffffffffffff16815260200190815260200160002060009054906101000a900460ff16151514610e15576040517f08c379a0000000000000000000000000000000000000000000000000000000008152600401610e0c90612345565b60405180910390fd5b6000600760008473ffffffffffffffffffffffffffffffffffffffff1673ffffffffffffffffffffffffffffffffffffffff16815260200190815260200160002060006101000a81548160ff0219169083151502179055507f4aad67043779dcf67a185cd5ab9983810396dda3beb7ffcc70eefe5b7a557a1082604051610e9c9190612152565b60405180910390a15050565b505050565b60007f01ffc9a7000000000000000000000000000000000000000000000000000000007bffffffffffffffffffffffffffffffffffffffffffffffffffffffff1916827bffffffffffffffffffffffffffffffffffffffffffffffffffffffff1916149050919050565b600033905090565b600073ffffffffffffffffffffffffffffffffffffffff168373ffffffffffffffffffffffffffffffffffffffff161415610f8f576040517f08c379a0000000000000000000000000000000000000000000000000000000008152600401610f8690612305565b60405180910390fd5b600073ffffffffffffffffffffffffffffffffffffffff168273ffffffffffffffffffffffffffffffffffffffff161415610fff576040517f08c379a0000000000000000000000000000000000000000000000000000000008152600401610ff690612245565b60405180910390fd5b80600160008573ffffffffffffffffffffffffffffffffffffffff1673ffffffffffffffffffffffffffffffffffffffff16815260200190815260200160002060008473ffffffffffffffffffffffffffffffffffffffff1673ffffffffffffffffffffffffffffffffffffffff168152602001908152602001600020819055508173ffffffffffffffffffffffffffffffffffffffff168373ffffffffffffffffffffffffffffffffffffffff167f8c5be1e5ebec7d5bd14f71427d1e84f3dd0314c0f7b2291e5b200ac8c7c3b925836040516110dd91906123c5565b60405180910390a3505050565b60006110f68484610c77565b90507fffffffffffffffffffffffffffffffffffffffffffffffffffffffffffffffff81146111705781811015611162576040517f08c379a000000000000000000000000000000000000000000000000000000000815260040161115990612265565b60405180910390fd5b61116f8484848403610f1f565b5b50505050565b600073ffffffffffffffffffffffffffffffffffffffff168373ffffffffffffffffffffffffffffffffffffffff1614156111e6576040517f08c379a00000000000000000000000000000000000000000000000000000000081526004016111dd906122e5565b60405180910390fd5b600073ffffffffffffffffffffffffffffffffffffffff168273ffffffffffffffffffffffffffffffffffffffff161415611256576040517f08c379a000000000000000000000000000000000000000000000000000000000815260040161124d90612205565b60405180910390fd5b61126183838361179c565b60008060008573ffffffffffffffffffffffffffffffffffffffff1673ffffffffffffffffffffffffffffffffffffffff168152602001908152602001600020549050818110156112e7576040517f08c379a00000000000000000000000000000000000000000000000000000000081526004016112de90612285565b60405180910390fd5b8181036000808673ffffffffffffffffffffffffffffffffffffffff1673ffffffffffffffffffffffffffffffffffffffff16815260200190815260200160002081905550816000808573ffffffffffffffffffffffffffffffffffffffff1673ffffffffffffffffffffffffffffffffffffffff168152602001908152602001600020600082825461137a9190612422565b925050819055508273ffffffffffffffffffffffffffffffffffffffff168473ffffffffffffffffffffffffffffffffffffffff167fddf252ad1be2c89b69c2b068fc378daa952ba7f163c4a11628f55a4df523b3ef846040516113de91906123c5565b60405180910390a36113f184848461191c565b50505050565b6114018282610893565b611490576114268173ffffffffffffffffffffffffffffffffffffffff166014611921565b6114348360001c6020611921565b604051602001611445929190612118565b6040516020818303038152906040526040517f08c379a000000000000000000000000000000000000000000000000000000000815260040161148791906121a3565b60405180910390fd5b5050565b61149e8282610893565b6115715760016005600084815260200190815260200160002060000160008373ffffffffffffffffffffffffffffffffffffffff1673ffffffffffffffffffffffffffffffffffffffff16815260200190815260200160002060006101000a81548160ff021916908315150217905550611516610f17565b73ffffffffffffffffffffffffffffffffffffffff168173ffffffffffffffffffffffffffffffffffffffff16837f2f8788117e7eff1d82e926ec794901d17c78024a50270940304540a733656f0d60405160405180910390a45b5050565b61157f8282610893565b156116535760006005600084815260200190815260200160002060000160008373ffffffffffffffffffffffffffffffffffffffff1673ffffffffffffffffffffffffffffffffffffffff16815260200190815260200160002060006101000a81548160ff0219169083151502179055506115f8610f17565b73ffffffffffffffffffffffffffffffffffffffff168173ffffffffffffffffffffffffffffffffffffffff16837ff6391f5c32d9c69d2a47ea670b442974b53935d1edc7fd64eb21e047a839171b60405160405180910390a45b5050565b61165f6107f7565b61169e576040517f08c379a000000000000000000000000000000000000000000000000000000000815260040161169590612225565b60405180910390fd5b6000600660006101000a81548160ff0219169083151502179055507f5db9ee0a495bf2e6ff9c91a7834c1ba4fdd244a5e8aa4e537bd38aeae4b073aa6116e2610f17565b6040516116ef9190612152565b60405180910390a1565b6117016107f7565b15611741576040517f08c379a0000000000000000000000000000000000000000000000000000000008152600401611738906122a5565b60405180910390fd5b6001600660006101000a81548160ff0219169083151502179055507f62e78cea01bee320cd4e420270b5ea74000d11b0c9f74754ebdbfc544b05a258611785610f17565b6040516117929190612152565b60405180910390a1565b6117a46107f7565b156117e4576040517f08c379a00000000000000000000000000000000000000000000000000000000081526004016117db906122a5565b60405180910390fd5b60011515600760008573ffffffffffffffffffffffffffffffffffffffff1673ffffffffffffffffffffffffffffffffffffffff16815260200190815260200160002060009054906101000a900460ff1615151415611878576040517f08c379a000000000000000000000000000000000000000000000000000000000815260040161186f90612365565b60405180910390fd5b60011515600760008473ffffffffffffffffffffffffffffffffffffffff1673ffffffffffffffffffffffffffffffffffffffff16815260200190815260200160002060009054906101000a900460ff161515141561190c576040517f08c379a0000000000000000000000000000000000000000000000000000000008152600401611903906121c5565b60405180910390fd5b611917838383610ea8565b505050565b505050565b6060600060028360026119349190612478565b61193e9190612422565b67ffffffffffffffff81111561197d577f4e487b7100000000000000000000000000000000000000000000000000000000600052604160045260246000fd5b6040519080825280601f01601f1916602001820160405280156119af5781602001600182028036833780820191505090505b5090507f300000000000000000000000000000000000000000000000000000000000000081600081518110611a0d577f4e487b7100000000000000000000000000000000000000000000000000000000600052603260045260246000fd5b60200101907effffffffffffffffffffffffffffffffffffffffffffffffffffffffffffff1916908160001a9053507f780000000000000000000000000000000000000000000000000000000000000081600181518110611a97577f4e487b7100000000000000000000000000000000000000000000000000000000600052603260045260246000fd5b60200101907effffffffffffffffffffffffffffffffffffffffffffffffffffffffffffff1916908160001a90535060006001846002611ad79190612478565b611ae19190612422565b90505b6001811115611bcd577f3031323334353637383961626364656600000000000000000000000000000000600f861660108110611b49577f4e487b7100000000000000000000000000000000000000000000000000000000600052603260045260246000fd5b1a60f81b828281518110611b86577f4e487b7100000000000000000000000000000000000000000000000000000000600052603260045260246000fd5b60200101907effffffffffffffffffffffffffffffffffffffffffffffffffffffffffffff1916908160001a905350600485901c945080611bc690612590565b9050611ae4565b5060008414611c11576040517f08c379a0000000000000000000000000000000000000000000000000000000008152600401611c08906121e5565b60405180910390fd5b8091505092915050565b600081359050611c2a81612ab9565b92915050565b600081359050611c3f81612ad0565b92915050565b600081359050611c5481612ae7565b92915050565b600081359050611c6981612afe565b92915050565b600060208284031215611c8157600080fd5b6000611c8f84828501611c1b565b91505092915050565b60008060408385031215611cab57600080fd5b6000611cb985828601611c1b565b9250506020611cca85828601611c1b565b9150509250929050565b600080600060608486031215611ce957600080fd5b6000611cf786828701611c1b565b9350506020611d0886828701611c1b565b9250506040611d1986828701611c5a565b9150509250925092565b60008060408385031215611d3657600080fd5b6000611d4485828601611c1b565b9250506020611d5585828601611c5a565b9150509250929050565b600060208284031215611d7157600080fd5b6000611d7f84828501611c30565b91505092915050565b60008060408385031215611d9b57600080fd5b6000611da985828601611c30565b9250506020611dba85828601611c1b565b9150509250929050565b600060208284031215611dd657600080fd5b6000611de484828501611c45565b91505092915050565b611df6816124d2565b82525050565b611e05816124e4565b82525050565b611e14816124f0565b82525050565b6000611e25826123fb565b611e2f8185612406565b9350611e3f81856020860161255d565b611e488161264a565b840191505092915050565b6000611e5e826123fb565b611e688185612417565b9350611e7881856020860161255d565b80840191505092915050565b6000611e91602483612406565b9150611e9c8261265b565b604082019050919050565b6000611eb4602083612406565b9150611ebf826126aa565b602082019050919050565b6000611ed7602383612406565b9150611ee2826126d3565b604082019050919050565b6000611efa601483612406565b9150611f0582612722565b602082019050919050565b6000611f1d602283612406565b9150611f288261274b565b604082019050919050565b6000611f40601d83612406565b9150611f4b8261279a565b602082019050919050565b6000611f63602683612406565b9150611f6e826127c3565b604082019050919050565b6000611f86601083612406565b9150611f9182612812565b602082019050919050565b6000611fa9602183612406565b9150611fb48261283b565b604082019050919050565b6000611fcc602583612406565b9150611fd78261288a565b604082019050919050565b6000611fef602483612406565b9150611ffa826128d9565b604082019050919050565b6000612012601283612406565b915061201d82612928565b602082019050919050565b6000612035601783612417565b915061204082612951565b601782019050919050565b6000612058601983612406565b91506120638261297a565b602082019050919050565b600061207b602183612406565b9150612086826129a3565b604082019050919050565b600061209e602583612406565b91506120a9826129f2565b604082019050919050565b60006120c1601183612417565b91506120cc82612a41565b601182019050919050565b60006120e4602f83612406565b91506120ef82612a6a565b604082019050919050565b61210381612546565b82525050565b61211281612550565b82525050565b600061212382612028565b915061212f8285611e53565b915061213a826120b4565b91506121468284611e53565b91508190509392505050565b60006020820190506121676000830184611ded565b92915050565b60006020820190506121826000830184611dfc565b92915050565b600060208201905061219d6000830184611e0b565b92915050565b600060208201905081810360008301526121bd8184611e1a565b905092915050565b600060208201905081810360008301526121de81611e84565b9050919050565b600060208201905081810360008301526121fe81611ea7565b9050919050565b6000602082019050818103600083015261221e81611eca565b9050919050565b6000602082019050818103600083015261223e81611eed565b9050919050565b6000602082019050818103600083015261225e81611f10565b9050919050565b6000602082019050818103600083015261227e81611f33565b9050919050565b6000602082019050818103600083015261229e81611f56565b9050919050565b600060208201905081810360008301526122be81611f79565b9050919050565b600060208201905081810360008301526122de81611f9c565b9050919050565b600060208201905081810360008301526122fe81611fbf565b9050919050565b6000602082019050818103600083015261231e81611fe2565b9050919050565b6000602082019050818103600083015261233e81612005565b9050919050565b6000602082019050818103600083015261235e8161204b565b9050919050565b6000602082019050818103600083015261237e8161206e565b9050919050565b6000602082019050818103600083015261239e81612091565b9050919050565b600060208201905081810360008301526123be816120d7565b9050919050565b60006020820190506123da60008301846120fa565b92915050565b60006020820190506123f56000830184612109565b92915050565b600081519050919050565b600082825260208201905092915050565b600081905092915050565b600061242d82612546565b915061243883612546565b9250827fffffffffffffffffffffffffffffffffffffffffffffffffffffffffffffffff0382111561246d5761246c6125ec565b5b828201905092915050565b600061248382612546565b915061248e83612546565b9250817fffffffffffffffffffffffffffffffffffffffffffffffffffffffffffffffff04831182151516156124c7576124c66125ec565b5b828202905092915050565b60006124dd82612526565b9050919050565b60008115159050919050565b6000819050919050565b60007fffffffff0000000000000000000000000000000000000000000000000000000082169050919050565b600073ffffffffffffffffffffffffffffffffffffffff82169050919050565b6000819050919050565b600060ff82169050919050565b60005b8381101561257b578082015181840152602081019050612560565b8381111561258a576000848401525b50505050565b600061259b82612546565b915060008214156125af576125ae6125ec565b5b600182039050919050565b600060028204905060018216806125d257607f821691505b602082108114156125e6576125e561261b565b5b50919050565b7f4e487b7100000000000000000000000000000000000000000000000000000000600052601160045260246000fd5b7f4e487b7100000000000000000000000000000000000000000000000000000000600052602260045260246000fd5b6000601f19601f8301169050919050565b7f476f6c643a204163636f756e7420726563697069656e7420696e20426c61636b60008201527f6c69737400000000000000000000000000000000000000000000000000000000602082015250565b7f537472696e67733a20686578206c656e67746820696e73756666696369656e74600082015250565b7f45524332303a207472616e7366657220746f20746865207a65726f206164647260008201527f6573730000000000000000000000000000000000000000000000000000000000602082015250565b7f5061757361626c653a206e6f7420706175736564000000000000000000000000600082015250565b7f45524332303a20617070726f766520746f20746865207a65726f20616464726560008201527f7373000000000000000000000000000000000000000000000000000000000000602082015250565b7f45524332303a20696e73756666696369656e7420616c6c6f77616e6365000000600082015250565b7f45524332303a207472616e7366657220616d6f756e742065786365656473206260008201527f616c616e63650000000000000000000000000000000000000000000000000000602082015250565b7f5061757361626c653a2070617573656400000000000000000000000000000000600082015250565b7f43616e206e6f742061646420796f757273656c6620746f20626c61636b6c697360008201527f7400000000000000000000000000000000000000000000000000000000000000602082015250565b7f45524332303a207472616e736665722066726f6d20746865207a65726f20616460008201527f6472657373000000000000000000000000000000000000000000000000000000602082015250565b7f45524332303a20617070726f76652066726f6d20746865207a65726f2061646460008201527f7265737300000000000000000000000000000000000000000000000000000000602082015250565b7f457869737420696e20626c61636b6c6973740000000000000000000000000000600082015250565b7f416363657373436f6e74726f6c3a206163636f756e7420000000000000000000600082015250565b7f446f206e6f7420657869737420696e20626c61636b6c69737400000000000000600082015250565b7f476f6c643a204163636f756e742073656e64657220696e20426c61636b6c697360008201527f7400000000000000000000000000000000000000000000000000000000000000602082015250565b7f45524332303a2064656372656173656420616c6c6f77616e63652062656c6f7760008201527f207a65726f000000000000000000000000000000000000000000000000000000602082015250565b7f206973206d697373696e6720726f6c6520000000000000000000000000000000600082015250565b7f416363657373436f6e74726f6c3a2063616e206f6e6c792072656e6f756e636560008201527f20726f6c657320666f722073656c660000000000000000000000000000000000602082015250565b612ac2816124d2565b8114612acd57600080fd5b50565b612ad9816124f0565b8114612ae457600080fd5b50565b612af0816124fa565b8114612afb57600080fd5b50565b612b0781612546565b8114612b1257600080fd5b5056fea2646970667358221220f2391f5a07eebf28d654856bcfeb8219eeda995e108329d4cd8160a1bcd08b7564736f6c63430008040033",
  "linkReferences": {},
  "deployedLinkReferences": {}
}